:020000020000FC
:020000005AC0E4
:020016003EC0EA
:10001A0000C04F935F930F935FB7409167004530DD
:10002A000CF403C0442740936700403041F493988E
:10003A0094989598929A00916600CED06AD04130F1
:10004A0041F4929894989598939A00916500C4D037
:10005A0060D0423041F4929893989598949A00917E
:10006A006400BAD056D0433041F492989398949849
:10007A00959A00916300B0D04CD0439540936700A5
:10008A005FBF0F915F914F9118950F930FB7B29B76
:10009A0005C0B39B05C0B49B05C005C0019603C04B
:1000AA000A9601C0CF960FBF0F9118950FED0DBF9D
:1000BA000EE701BB01EC07BB0CE108BB00E20BBF7A
:1000CA000CE100BD02E000BF05E003BF09E106BF85
:1000DA0001E009BF11241092670080E090E0789453
:1000EA0063D070FD969A70FF9698FACFEE24FF18A7
:1000FA0041E1001F111F4A9509F40895EE1CFF1CE7
:10010A00E21AF30A20F4E20EF31E8894F2CF08945E
:10011A00F0CF0F930FB800E40EB90BE10DB9769B3F
:10012A00FDCFC09AC0980F910895F89400E00CBDD5
:10013A000CE30ABD05E408BD03E00EBDB99A08B791
:10014A0006FFFDCFB99808B705FFFDCF0DD000E037
:10015A000CBD04E30ABD08B706FFFDCF00270EBD9C
:10016A000FEF08BF78940895B19B716008951F93AB
:10017A0013E308E01F9108950F93F894726000E06A
:10018A000CBD01E00ABD09E008BDB99A08B706FF2F
:10019A00FDCF90FCB99808B705FFFDCF00270EBD2B
:1001AA007D7F78940F9108955F9354E0A3E6B0E0C1
:1001BA008093610090936200009161001091620047
:1001CA002AE030E093DFED92009361001093620021
:1001DA005A9591F75F9108950F931F93ECE1F2E01E
:1001EA001127E00FF11F04901F910F91089503EB5F
:1001FA000A95F1F708950F931F930FEF1FEF1A95C2
:10020A00000000000000D9F70A95C1F71F910F916D
:0E021A000895C0F9A4B0999282F880909C00DB
:00000001FF
