:020000020000FC
:020000005AC0E4
:020016003EC0EA
:10001A0000C04F935F930F935FB7409167004530DD
:10002A000CF403C0442740936700403041F493988E
:10003A0094989598929A00916600AAD083D04130FC
:10004A0041F4929894989598939A00916500A0D05B
:10005A0079D0423041F4929893989598949A009165
:10006A00640096D06FD0433041F492989398949854
:10007A00959A009163008CD065D0439540936700B0
:10008A005FBF0F915F914F9118950F930FB7B29B76
:10009A0005C0B39B05C0B49B05C005C0019603C04B
:1000AA000A9601C0CF960FBF0F9118950FED0DBF9D
:1000BA000EE701BB01EC07BB0CE108BB00E20BBF7A
:1000CA000CE100BD02E000BF05E003BF09E106BF85
:1000DA0001E009BF11241092670080E090E003E874
:1000EA000CBD00E00DBD01EC0ABD00E00BBD03E054
:1000FA000EBDB99A08B706FFFDCF30D0789430D03C
:10010A00969A55D054D053D052D051D050D09698B8
:10011A004ED04DD04CD04BD04AD049D0F0CFEE245F
:10012A00FF1841E1001F111F4A9509F40895EE1CBA
:10013A00FF1CE21AF30A20F4E20EF31E8894F2CFAF
:10014A000894F0CF0F930FB800E40EB90BE10DB984
:10015A00769BFDCFC09AC0980F910895B9980895DB
:10016A005F9354E0A3E6B0E080936100909362004D
:10017A0000916100109162002AE030E0D0DFED9238
:10018A0000936100109362005A9591F75F91089568
:10019A000F931F93E4EDF1E01127E00FF11F049094
:1001AA001F910F91089503EB0A95F1F708950F93A4
:1001BA001F930FEF1FEF1A95000000000000D9F7F8
:1001CA000A95C1F71F910F910895C0F9A4B09992A9
:0601DA0082F880909C00F9
:00000001FF
