:020000020000FC
:1000000000C00FED0DBF0CE701BB01EC07BB01E029
:100010000093610001E00093620009E00093630037
:1000200001E0009364001124EAEBF0E00AC00FB88D
:1000300000E40EB90BE10DB9769BFDCFC09AC098D4
:10004000089536D001D0FDCF929A0091640019D066
:10005000EEDF1ED09298939A0091630012D0E7DFF2
:1000600017D09398949A009162000BD0E0DF10D0E3
:100070009498959A0091610004D0D9DF09D09598A1
:100080000895EAEBF0E010E0E00FF11FC895089545
:100090000F931F93F89402E31FEF1A9500000000DE
:1000A0000000D9F70A95C1F778941F910F91089530
:1000B00000E412B3102712BB0895C0F9A4B09992BE
:0400C00082F88090B2
:00000001FF
