:020000020000FC
:0200000073C0CB
:0200160018953B
:10001A0015C00F931F932F933F930FB7B49908C03E
:10002A0020916000203009F003C011E010936000B5
:10003A000FBF3F912F911F910F9118954F935F9387
:10004A000F931F935FB74091670045300CF403C0CC
:10005A00442740936700403081F493989498959888
:10006A000EF002C00BE002C000916500002311F0FF
:10007A00929A01C09298B5D130D1413081F49298C8
:10008A00949895980091640030916500032B11F0C3
:10009A00939A01C0939800916400A3D11ED1423073
:1000AA0059F4929893989598949A0091630099D1EB
:1000BA00002D0F77002E11D1433041F49298939876
:1000CA009498959A00916B008CD107D143954093EF
:1000DA0067005FBF1F910F915F914F9118950FEDC8
:1000EA000DBF0FE701BB01EE07BB0CE108BB02E045
:1000FA0000BF05E003BF09E106BF00E20BBF0CE148
:10010A0000BD11241092670000E0009360000FEF19
:10011A0000936C0005E000936D0005E000936E000B
:10012A0001E000936F0000270093690000936A00C2
:10013A0000EF00936B0060D180E090E000916000D6
:10014A00003031F4969833D161D001E009BF25D04F
:10015A00013019F496982BD1CCD0023079F7969ABF
:10016A001BE01093630010936400109365001093D2
:10017A006600E4CFEE24FF1841E1001F111F4A95E3
:10018A0009F40895EE1CFF1CE21AF30A20F4E20EA9
:10019A00F31E8894F2CF0894F0CF0F931F932F93F6
:1001AA003F934F935F936F930091690010916A0098
:1001BA0020916B0030916C0040916D0050916F005E
:1001CA000EF43195552309F419C003172CF416F4CB
:1001DA00909801C0909A12C0031729F016F4909AC9
:1001EA0001C090980BC016F4909801C0909A2417F9
:1001FA000CF404C016F4909A01C090986F915F9124
:10020A004F913F912F911F910F9108951F935BD0AA
:10021A005CE034E34DEF0FD15CE034E34DEF0BD1FA
:10022A0008D010916900812F10916A00912F1F91B7
:10023A0008950F931F932F933F934F9368D00CEC1D
:10024A00802E7AD00EEB802E77D0A9E6B0E095D03A
:10025A00AAE6B0E092D01091690020916A002F932B
:10026A00287F283F11F0E89409C02F9168941095CF
:10027A00209531E0130F30E0231F01C02F912695FE
:10028A0017952695179526951795269517953091C2
:10029A0069000EF43195432F3F70432F330F330F0C
:1002AA00330F440F340F369536953695369510939D
:1002BA00690020936A0030936B004F913F912F9110
:1002CA001F910F9108950F9322D00CEC802E34D0F9
:1002DA0004E4802E31D00F9108950F930FB800E4F3
:1002EA000EB90BE10DB9769BFDCFC09AC0980F915C
:1002FA0008950F938CD0B29B0196B39B0197B49B40
:10030A0001C003C000E0009360000F910895F894C3
:10031A00B99A33E04EEB8BD0B99830E04AE887D0EF
:10032A0005D033E042E383D078940895B19B71609D
:10033A0002C0B1997E7F08950F931F93082D18E08C
:10034A00069508F458F0F894B99A30E046E76FD069
:10035A00B99830E042E16BD078940AC0F894B99A1F
:10036A0030E04AE064D0B99830E04EE760D0789443
:10037A001A9531F71F910F9108950F931F93002734
:10038A0018E0F8940695B99A30E04AE050D0B99846
:10039A0030E040E14CD0B199006830E04CE647D0FB
:1003AA001A9581F70C9378941F910F910895F894F8
:1003BA005F9354E0A3E6B0E08093610090936200FB
:1003CA0000916100109162002AE030E0D3DEED92E4
:1003DA0000936100109362005A9591F75F917894A7
:1003EA0008950F931F93EAE6F4E01127E00FF11F37
:1003FA0004901F910F910895C59A22D0C598089527
:10040A00C59A1ED01DD01CD01BD0C59808950F9335
:10041A001F932F932AE01FEF0FEF0A95F1F71A9512
:10042A00D9F72A95C1F72F911F910F91089541503D
:10043A003040E8F70895415030405040E0F70895C1
:10044A000F931F932F9326E00FEF1FEF1A95F1F7E3
:10045A000A95D9F72A95C1F72F911F910F910895FF
:0C046A00C0F9A4B0999282F880909CBF69
:00000001FF
