:020000020000FC
:020000007AC0C4
:02000800189549
:0200160002C026
:10001A0018C00F931F932F933F930FB716B3212F37
:10002A002C71309171002327209371001C7019F4F0
:10003A0011E0109360000FBF3F912F911F910F9114
:10004A0018950F931F932F933F934F935F935FB727
:10005A004091670045300CF403C044274093670081
:10006A00403081F49398949895980EF002C00BE072
:10007A0002C000916500002311F0929A01C0929883
:10008A0060D29BD1413081F49298949895980091CE
:10009A00640030916500032B11F0939A01C0939884
:1000AA00009164004ED289D1423059F492989398C3
:1000BA009598949A0091630044D2002D0F77002EF0
:1000CA007CD1433041F4929893989498959A0091F0
:1000DA00660037D272D14395409367005FBF5F9144
:1000EA004F913F912F911F910F9118950FED0DBFD1
:1000FA000FE701BB01EE07BB0CE108BB02E000BF42
:10010A0005E003BF09E106BF00E20BBF0CE100BD39
:10011A0003E309B900E002B908E00AB906E003B945
:10012A0011241092670000E0009360000CE2009333
:10013A006C0001E000936B0005E000936D0001E0A4
:10014A0000936E000027009368000093690000EF97
:10015A0000936A0000E0009371006624CED00091FB
:10016A006F00083209F405C012E010936000FBD159
:10017A0001C0F2D180E090E000916000C8D1003067
:10018A0051F4969820916A0020936600A7D011E056
:10019A0019BF57D038D0013011F496981CD10230CB
:1001AA0059F7969AE9CFEE24FF1841E1001F111F73
:1001BA004A9509F40895EE1CFF1CE21AF30A20F48A
:1001CA00E20EF31E8894F2CF0894F0CFFF1829E0CC
:1001DA00001F2A9509F40895FF1CF11A18F4F10E6C
:1001EA008894F6CF0894F4CF5527442760E13695D2
:1001FA00279510F4400F511F579547953795279526
:10020A006A95B9F708950F931F9300916800502ECD
:10021A0014D000916A00502E10D000B30170502EF5
:10022A000CD004E0502E09D00027502E1CE005D037
:10023A001A95E9F71F910F9108955D9BFECF5CB85F
:10024A0008950F931F932F933F934F935F937F9339
:10025A0000916800109169002AE030E0C5DF022FA2
:10026A00132F20916A003327020F131F40916C004D
:10027A0050916B0060916D004F935F937727461BF7
:10028A00570BB42EA52E5F914F917727460F571F14
:10029A00D42EC52E0EF004C0009510950F5F1F4F87
:1002AA00B016A10624F40D151C054CF40FC040919C
:1002BA006E00442311F4909801C0909A07C04091AF
:1002CA006E00442311F4909A01C090987F915F9137
:1002DA004F913F912F911F910F9108951F9361D0D4
:1002EA0052E135E54DEB5AD112D010916800812FB9
:1002FA0010916900912F1F9108950F93BAD003E3CB
:10030A00802ECCD0AFE6B0E0E8D00F9108950F93DD
:10031A001F932F933F934F93ACD070FF3CC00CECCC
:10032A00802EBCD00EEB802EB9D0A8E6B0E0D5D096
:10033A00A9E6B0E0D2D010916800209169002F930D
:10034A00287F283F11F0E89407C02F9168941095F0
:10035A0020951F5F2F4F01C02F912695179526953F
:10036A0017952695179526951795309168000EF4DE
:10037A003195432F3F70432F330F330F330F440F01
:10038A00340F369536953695369510936800209336
:10039A00690030936A004F913F912F911F910F91FD
:1003AA0008950F9366D070FF06C00CEC802E76D0AD
:1003BA0004E4802E73D00F9108950F930F920FB813
:1003CA0000E40EB90BE10DB9769BFDCFC09AC09837
:1003DA000F900F9108950F931F932F93062D0023CB
:1003EA0009F002C06394B8D0013009F00CC00F9331
:1003FA001F9300916D001AE0E9DE802F9927F09291
:10040A0066001F910F910091710004FF01C015C091
:10041A00B49B01C02AC01091710010611093710041
:10042A00A9D06394162D143011F096D01EC06624FC
:10043A009AD010E01093600018C0B29B03C0B39B1F
:10044A000BC013C057E032E54DEFA8D020916D00E4
:10045A00239520936D0009C057E032E54DEF9ED0F9
:10046A0020916D002A9520936D002F911F910F9175
:10047A000895F894B99A33E04EEB8CD0B99830E0ED
:10048A004AE888D005D033E042E384D078940895CE
:10049A00B19B716002C0B1997E7F0895F8940F9361
:1004AA001F93082D18E0069508F448F0B99A30E031
:1004BA0046E770D0B99830E042E16CD008C0B99AEA
:1004CA0030E04AE067D0B99830E04EE763D01A9539
:1004DA0051F71F910F9178940895F8940F931F93F1
:1004EA00002718E00695B99A30E04AE053D0B99847
:1004FA0030E040E14FD0B199006830E04CE64AD094
:10050A001A9581F70C931F910F91789408950F9380
:10051A005F9353E0A3E6B0E080936100909362009A
:10052A0000916100109162002AE030E03CDEED9219
:10053A0000936100109362005A9591F75F910F91B1
:10054A0008950F931F93E0EDF5E01127E00FF11FD7
:10055A0004901F910F910895C59A53E039EA4DE727
:10056A001DD0C5980895C59A5CE034E34DEF16D0C6
:10057A00C59808950F931F932F932AE01FEF0FEF4B
:10058A000A95F1F71A95D9F72A95C1F72F911F9174
:10059A000F91089541503040E8F708954150304096
:1005AA005040E0F708950F931F932F9326E00FEF23
:1005BA001FEF1A95F1F70A95D9F72A95C1F72F91E6
:1005CA001F910F910895C0F9A4B0999282F8809072
:0405DA009CBFC68973
:00000001FF
