:020000020000FC
:0200000074C0CA
:0200160018953B
:10001A0016C018950F931F932F933F930FB7B49958
:10002A0008C020916000203009F003C011E010934D
:10003A0060000FBF3F912F911F910F9118954F9319
:10004A005F930F931F935FB74091670045300CF49D
:10005A0003C0442740936700403081F493989498F2
:10006A0095980EF002C00BE002C0009165000023D3
:10007A0011F0929A01C0929867D1E2D0413081F48E
:10008A009298949895980091640030916500032B9A
:10009A0011F0939A01C093980091640055D1D0D081
:1000AA00423059F4929893989598949A00916300E3
:1000BA004BD1002D0F77002EC3D0433041F49298D4
:1000CA0093989498959A00916C003ED1B9D0439533
:1000DA00409367005FBF1F910F915F914F911895F1
:1000EA000FED0DBF0FE701BB01EE07BB0CE108BB2B
:1000FA0002E000BF05E003BF09E106BF00E20BBF53
:10010A000CE100BD11241092670000E0009360002A
:10011A00002700936A0000936B0000EF00936C00C5
:10012A001ED180E090E000916000003081F4969842
:10013A00F1D07CD01FD11ED12FD010916A00812F0F
:10014A0010916B00912F0F9301E009BF0F910130BD
:10015A0019F49698DFD080D0023029F7969A1BE0DE
:10016A001093630010936400109365001093660067
:10017A00DACFEE24FF1841E1001F111F4A9509F456
:10018A000895EE1CFF1CE21AF30A20F4E20EF31E95
:10019A008894F2CF0894F0CF0F931F932F933F9335
:1001AA004F9368D00CEC802E7AD00EEB802E77D04D
:1001BA00AAE6B0E095D0ABE6B0E092D010916A0022
:1001CA0020916B002F93287F283F11F0E89409C0F3
:1001DA002F9168941095209531E0130F30E0231F7A
:1001EA0001C02F912695179526951795269517954F
:1001FA002695179530916A000EF43195432F3F707A
:10020A00432F330F330F330F440F340F3695369580
:10021A003695369510936A0020936B0030936C00E4
:10022A004F913F912F911F910F9108950F9322D0D3
:10023A000CEC802E34D004E4802E31D00F91089536
:10024A000F930FB800E40EB90BE10DB9769BFDCF01
:10025A00C09AC0980F9108950F938CD0B29B0196C3
:10026A00B39B0197B49B01C003C000E000936000F8
:10027A000F910895F894B99A33E04EEB8BD0B99860
:10028A0030E04AE887D005D033E042E383D078945F
:10029A000895B19B716002C0B1997E7F08950F9352
:1002AA001F93082D18E0069508F458F0F894B99AA7
:1002BA0030E046E76FD0B99830E042E16BD07894ED
:1002CA000AC0F894B99A30E04AE064D0B99830E0AC
:1002DA004EE760D078941A9531F71F910F910895DF
:1002EA000F931F93002718E0F8940695B99A30E007
:1002FA004AE050D0B99830E040E14CD0B19900685A
:10030A0030E04CE647D01A9581F70C9378941F9108
:10031A000F910895F8945F9354E0A3E6B0E08093B8
:10032A0061009093620000916100109162002AE0DE
:10033A0030E01FDFED9200936100109362005A953E
:10034A0091F75F91789408950F931F93E6ECF3E089
:10035A001127E00FF11F04901F910F910895C59A7C
:10036A001DD0C5980895C59A19D018D017D016D09F
:10037A00C59808950F931F932F932AE01FEF0FEF4D
:10038A000A95F1F71A95D9F72A95C1F72F911F9176
:10039A000F91089541503040E8F708950F931F9345
:1003AA002F9326E00FEF1FEF1A95F1F70A95D9F769
:1003BA002A95C1F72F911F910F910895C0F9A4B002
:0803CA00999282F880909CBF1B
:00000001FF
