:020000020000FC
:020000006CC0D2
:02000800189549
:0200160002C026
:10001A000DC00F931F930FB716B31C7019F411E09C
:10002A00109360000FBF1F910F9118950F931F93A4
:10003A002F933F934F935F935FB74091670045308B
:10004A000CF403C0442740936700403081F493982E
:10005A00949895980EF002C00BE002C000916500DA
:10006A00002311F0929A01C0929856D302D24130DD
:10007A0081F4929894989598009164003091650063
:10008A00032B11F0939A01C093980091640044D312
:10009A00F0D1423041F4929893989598949A0091AD
:1000AA0063003AD3E6D1433041F4929893989498F6
:1000BA00959A0091660030D3DCD14395409367004E
:1000CA005FBF5F914F913F912F911F910F911895AB
:1000DA000FED0DBF0FE701BB01EE07BB0CE108BB3B
:1000EA0002E000BF05E003BF03E206BF00E20BBF68
:1000FA000CE100BD03E309B900E002B908E00AB95E
:10010A0006E003B911241092670000E00093600032
:10011A0004E0302EEAD0042D003111F09CD014C036
:10012A0000E0302EE2D040926B0001E0302EDDD0AC
:10013A0040926C0002E0302ED8D040926D0003E06D
:10014A00302ED3D040926E000027009368000093AF
:10015A00690000EF00936A000FEF009371006624B4
:10016A0028D100916F00083209F405C012E01093FB
:10017A006000F3D201C0EAD280E090E00091600012
:10018A00003051F420916A002093660003D1AAD26C
:10019A00B4D011E019BF41D0013009F4A6D1023020
:1001AA0069F71BE0109363001093640010936500D5
:1001BA001093660011E019BFE1CFEE24FF1841E168
:1001CA00001F111F4A9509F40895EE1CFF1CE21A3C
:1001DA00F30A20F4E20EF31E8894F2CF0894F0CFCB
:1001EA00FF1829E0001F2A9509F40895FF1CF11A47
:1001FA0018F4F10E8894F6CF0894F4CF55274427C3
:10020A0060E13695279510F4400F511F5795479591
:10021A00379527956A95B9F708950F931F9300911B
:10022A006800502E14D000916A00502E10D000B3EE
:10023A000170502E0CD004E0502E09D00027502E09
:10024A001CE005D01A95E9F71F910F9108955D9B5F
:10025A00FECF5CB8089501E000936B00402E00E0E9
:10026A00302E36D00CE200936C00402E01E0302E86
:10027A002FD005E000936D00402E02E0302E28D0EA
:10028A0001E000936E00402E03E0302E21D000E101
:10029A00402E04E0302E1CD008950F9300916B007D
:1002AA00402E00E0302E14D000916C00402E01E068
:1002BA00302E0ED000916D00402E02E0302E08D074
:1002CA0000916E00402E03E0302E02D00F91089567
:1002DA00F8940F93E199FECF00E00CBB3EBA4DBAF9
:1002EA00E29AE19A0F9178940895F894E199FECFF1
:1002FA003EBAE09A4DB2789408950F931F932F93C4
:10030A003F934F935F937F93009168001091690028
:10031A002AE030E073DF022F132F20916A0033277F
:10032A00020F131F40916C0050916B0060916D0099
:10033A004F935F937727461B570BB42EA52E5F91D9
:10034A004F917727460F571FD42EC52E0EF004C0A3
:10035A00009510950F5F1F4FB016A10624F40D15D6
:10036A001C054CF40FC040916E00442311F4909880
:10037A0001C0909A07C040916E00442311F4909AEC
:10038A0001C090987F915F914F913F912F911F915A
:10039A000F9108951F9361D052E135E54DEBF8D1E5
:1003AA0012D010916800812F10916900912F1F912E
:1003BA0008950F9349D103E3802E5BD1AFE6B0E0F5
:1003CA0077D10F9108950F931F932F933F934F93D4
:1003DA003BD170FF3CC00CEC802E4BD10EEB802E33
:1003EA0048D1A8E6B0E064D1A9E6B0E061D11091A5
:1003FA006800209169002F93287F283F11F0E89424
:10040A0007C02F916894109520951F5F2F4F01C048
:10041A002F91269517952695179526951795269522
:10042A001795309168000EF43195432F3F70432F92
:10043A00330F330F330F440F340F369536953695F5
:10044A003695109368002093690030936A004F91A3
:10045A003F912F911F910F9108950F93F5D070FF3F
:10046A0006C00CEC802E05D104E4802E02D10F9137
:10047A0008950F930F920FB800E40EB90BE10DB96E
:10048A00769BFDCFC09AC0980F900F9108950F9355
:10049A00B49B01C01CC000917100002309F417C06D
:1004AA0000270093710060D16394162D143014F460
:1004BA004DD10DC010E019BF9298939894989598D1
:1004CA006624EBDE4AD1969810E010936000B49946
:1004DA0001C009C000917100002309F004C00FEFA8
:1004EA000093710041D10F9108950F931F932F9399
:1004FA003F934F93062D002309F004C09098969AD3
:10050A0025D16394C4DF013029F0023051F1033060
:10051A0039F194C0E7D0B29B04C000C0B39B0AC0B3
:10052A0011C022D110916D00183C09F01395109357
:10053A006D0008C019D110916D00113009F01A959B
:10054A0010936D00E8940F931F9300916D001AE0C9
:10055A0047DE802F9927F09266001F910F916EC097
:10056A0047C0C0D0B29B04C000C0B39B13C021C017
:10057A00FBD010916C0020916B00103B34E02307F4
:10058A0031F03AE0130F3327231F10936C002093A6
:10059A006B000FC0E9D010916C0020916B001C30E9
:1005AA003EEF230711F01A50204010936C0020935D
:1005BA006B000F931F932F933F9300916C00109140
:1005CA006B00212F207811F4E89405C068940095F7
:1005DA0010950F5F1F4F2AE030E0EFDD802F912F3B
:1005EA000AE0009366003F912F911F910F9126C058
:1005FA00E894B29B04C000C0B39B06C009C0B4D043
:10060A0011E010936E0004C0AFD010E010936E009A
:10061A001127812F912F1EE010936300109364001D
:10062A001093650020916E00222309F004C01CE09B
:10063A001093660003C01DE0109366004F913F912E
:10064A002F911F910F910895F894B99A33E04EEBC8
:10065A009BD0B99830E04AE897D005D033E042E31E
:10066A0093D078940895B19B716002C0B1997E7F4E
:10067A000895F8940F931F93082D18E0069508F42F
:10068A0048F0B99A30E046E77FD0B99830E042E1C5
:10069A007BD008C0B99A30E04AE076D0B99830E009
:1006AA004EE772D01A9551F71F910F9178940895D9
:1006BA00F8940F931F93002718E00695B99A30E033
:1006CA004AE062D0B99830E040E15ED0B199006862
:1006DA0030E04CE659D01A9581F70C931F910F918F
:1006EA00789408950F935F9353E0A3E6B0E0809364
:1006FA0061009093620000916100109162002AE00B
:10070A0030E05BDDED9200936100109362005A9530
:10071A0091F75F910F9108950F931F93E4EAF7E021
:10072A001127E00FF11F049000916700023009F0D1
:10073A000AC0002D0F77002E062D02300CF403C0DC
:10074A00002D0068002E1F910F910895C59A53E05D
:10075A0039EA4DE71DD0C5980895C59A5CE034E39F
:10076A004DEF16D0C59808950F931F932F932AE043
:10077A001FEF0FEF0A95F1F71A95D9F72A95C1F7E6
:10078A002F911F910F91089541503040E8F7089535
:10079A00415030405040E0F70895C0F9A4B0999212
:0807AA0082F880909CBFC68913
:00000001FF
