:020000020000FC
:0200000069C0D5
:0200160018953B
:10001A0015C00F931F932F933F930FB7B49908C03E
:10002A0020916000203009F003C011E010936000B5
:10003A000FBF3F912F911F910F9118954F935F9387
:10004A000F935FB74091670045300CF403C0442713
:10005A0040936700403081F49398949895980EF0F5
:10006A0002C00BE002C000916500002311F0929AD1
:10007A0001C0929869D1E4D0413041F492989498A1
:10008A009598939A009164005FD1DAD0423059F47E
:10009A00929893989598949A0091630055D1002D5F
:1000AA000F77002ECDD0433041F4929893989498CC
:1000BA00959A00916C0048D1C3D04395409367004C
:1000CA005FBF0F915F914F9118950FED0DBF0EE72E
:1000DA0001BB01EC07BB0CE108BB02E000BF05E075
:1000EA0003BF09E106BF01E009BF00E20BBF0CE153
:1000FA0000BD03E309B900E002B908E10AB906E064
:10010A0003B911241092670000E0009360000027F1
:10011A0000936A0000936B0000EF00936C0080E08C
:10012A0090E000916000003079F4F4D070FD969A66
:10013A0070FF96987BD013D112D12ED010916A00FD
:10014A00812F10916B00912F013011F4E3D084D0EC
:10015A00023039F71BE01093630010936400109388
:10016A006500109366000000DCCFEE24FF1841E121
:10017A00001F111F4A9509F40895EE1CFF1CE21A8C
:10018A00F30A20F4E20EF31E8894F2CF0894F0CF1B
:10019A0041503040E8F708950F931F932F933F93F0
:1001AA004F9368D00CEC802E7AD00EEB802E77D04D
:1001BA00AAE6B0E095D0ABE6B0E092D010916A0022
:1001CA0020916B002F93287F283F11F0E89409C0F3
:1001DA002F9168941095209531E0130F30E0231F7A
:1001EA0001C02F912695179526951795269517954F
:1001FA002695179530916A000EF43195432F3F707A
:10020A00432F330F330F330F440F340F3695369580
:10021A003695369510936A0020936B0030936C00E4
:10022A004F913F912F911F910F9108950F9322D0D3
:10023A000CEC802E34D004E4802E31D00F91089536
:10024A000F930FB800E40EB90BE10DB9769BFDCF01
:10025A00C09AC0980F9108950F9381D0B29B0196CE
:10026A00B39B0197B49B01C003C000E000936000F8
:10027A000F910895F894B99A33E04EEB89DFB99853
:10028A0030E04AE885DF05D033E042E381DF789445
:10029A000895B19B716002C0B1997E7F08950F9352
:1002AA001F93082D18E0069508F458F0F894B99AA7
:1002BA0030E046E76DDFB99830E042E169DF7894D3
:1002CA000AC0F894B99A30E04AE062DFB99830E09F
:1002DA004EE75EDF78941A9531F71F910F910895D2
:1002EA000F931F93002718E0F8940695B99A30E007
:1002FA004AE04EDFB99830E040E14ADFB199006840
:10030A0030E04CE645DF1A9581F70C9378941F91FB
:10031A000F910895F8945F9354E0A3E6B0E08093B8
:10032A0061009093620000916100109162002AE0DE
:10033A0030E01BDFED9200936100109362005A9542
:10034A0091F75F91789408950F931F93E4EAF3E08D
:10035A001127E00FF11F04901F910F9108950F9339
:10036A001F932F932AE01FEF0FEF0A95F1F71A95C3
:10037A00D9F72A95C1F72F911F910F9108950F93DD
:10038A001F930FEF1FEF1A95000000000000D9F726
:10039A000A95C1F71F910F910895C0F9A4B09992D7
:0603AA0082F880909CBF68
:00000001FF
