:020000020000FC
:0200000073C0CB
:0200160018953B
:10001A0015C00F931F932F933F930FB7B49908C03E
:10002A0020916000203009F003C011E010936000B5
:10003A000FBF3F912F911F910F9118954F935F9387
:10004A000F931F935FB74091670045300CF403C0CC
:10005A00442740936700403081F493989498959888
:10006A000EF002C00BE002C000916500002311F0FF
:10007A00929A01C09298F8D173D1413081F4929842
:10008A00949895980091640030916500032B11F0C3
:10009A00939A01C0939800916400E6D161D14230ED
:1000AA0059F4929893989598949A00916300DCD1A8
:1000BA00002D0F77002E54D1433041F49298939833
:1000CA009498959A00916B00CFD14AD14395409369
:1000DA0067005FBF1F910F915F914F9118950FEDC8
:1000EA000DBF0FE701BB01EE07BB0CE108BB02E045
:1000FA0000BF05E003BF09E106BF00E20BBF0CE148
:10010A0000BD11241092670000E0009360000CE229
:10011A0000936D0001E000936C0005E000936E000F
:10012A0001E000936F0000270093690000936A00C2
:10013A0000EF00936B00B6D000917000083209F40A
:10014A0005C012E0109360009ED101C098D180E0F2
:10015A0090E000916000003031F496986BD18FD016
:10016A0001E009BF39D0013019F4969863D104D15E
:10017A00023079F7969AEDCFEE24FF1841E1001F7D
:10018A00111F4A9509F40895EE1CFF1CE21AF30A9E
:10019A0020F4E20EF31E8894F2CF0894F0CFFF18F1
:1001AA0029E0001F2A9509F40895FF1CF11A18F492
:1001BA00F10E8894F6CF0894F4CF5527442760E1CE
:1001CA003695279510F4400F511F57954795379547
:1001DA0027956A95B9F708950F931F932F933F9325
:1001EA004F935F936F937F930091690010916A0018
:1001FA002AE030E0E2DF022F132F20916B00332731
:10020A00020F131F109371000093720040916D004A
:10021A0050916C0060916E004F935F937727461B55
:10022A00570BB42EA52E5F914F917727460F571F74
:10023A00D42EC52E0EF004C0009510950F5F1F4FE7
:10024A00B016A10624F40D151C054CF40FC04091FC
:10025A006F00442311F4909801C0909A07C040910E
:10026A006F00442311F4909A01C090987F916F9186
:10027A005F914F913F912F911F910F9108951F9375
:10028A0065D05CE034E34DEF19D15CE034E34DEF27
:10029A0015D112D010916900812F10916A00912F07
:1002AA001F9108950F9376D003E3802E88D0A0E79C
:1002BA00B0E0A6D00F9108950F931F932F933F9309
:1002CA004F9368D00CEC802E7AD00EEB802E77D02C
:1002DA00A9E6B0E095D0AAE6B0E092D01091690004
:1002EA0020916A002F93287F283F11F0E89409C0D3
:1002FA002F9168941095209531E0130F30E0231F59
:10030A0001C02F912695179526951795269517952D
:10031A0026951795309169000EF43195432F3F7059
:10032A00432F330F330F330F440F340F369536955F
:10033A00369536951093690020936A0030936B00C6
:10034A004F913F912F911F910F9108950F9322D0B2
:10035A000CEC802E34D004E4802E31D00F91089515
:10036A000F930FB800E40EB90BE10DB9769BFDCFE0
:10037A00C09AC0980F9108950F938CD0B29B0196A2
:10038A00B39B0197B49B01C003C000E000936000D7
:10039A000F910895F894B99A33E04EEB8BD0B9983F
:1003AA0030E04AE887D005D033E042E383D078943E
:1003BA000895B19B716002C0B1997E7F08950F9331
:1003CA001F93082D18E0069508F458F0F894B99A86
:1003DA0030E046E76FD0B99830E042E16BD07894CC
:1003EA000AC0F894B99A30E04AE064D0B99830E08B
:1003FA004EE760D078941A9531F71F910F910895BE
:10040A000F931F93002718E0F8940695B99A30E0E5
:10041A004AE050D0B99830E040E14CD0B199006838
:10042A0030E04CE647D01A9581F70C9378941F91E7
:10043A000F910895F8945F9354E0A3E6B0E0809397
:10044A0061009093620000916100109162002AE0BD
:10045A0030E092DEED9200936100109362005A95AB
:10046A0091F75F91789408950F931F93E0EFF4E06A
:10047A001127E00FF11F04901F910F910895C59A5B
:10048A0022D0C5980895C59A1ED01DD01CD01BD065
:10049A00C59808950F931F932F932AE01FEF0FEF2C
:1004AA000A95F1F71A95D9F72A95C1F72F911F9155
:1004BA000F91089541503040E8F708954150304077
:1004CA005040E0F708950F931F932F9326E00FEF04
:1004DA001FEF1A95F1F70A95D9F72A95C1F72F91C7
:1004EA001F910F910895C0F9A4B0999282F8809053
:0204FA009CBFA5
:00000001FF
