:020000020000FC
:020000006FC0CF
:02000800189549
:0200160002C026
:10001A000DC00F931F930FB716B31C7019F411E09C
:10002A00109360000FBF1F910F9118950F931F93A4
:10003A002F933F934F935F935FB74091670045308B
:10004A000CF403C0442740936700403081F493982E
:10005A00949895980EF002C00BE002C000916500DA
:10006A00002311F0929A01C09298A3D29BD14130F9
:10007A0081F4929894989598009164003091650063
:10008A00032B11F0939A01C093980091640091D2C6
:10009A0089D1423059F4929893989598949A0091FC
:1000AA00630087D2002D0F77002E7CD1433041F4B4
:1000BA00929893989498959A009166007AD272D100
:1000CA004395409367005FBF5F914F913F912F9196
:1000DA001F910F9118950FED0DBF0FE701BB01EEB0
:1000EA0007BB0CE108BB02E000BF05E003BF09E162
:1000FA0006BF00E20BBF0CE100BD03E309B900E053
:10010A0002B908E00AB906E003B91124109267009F
:10011A0000E0009360000BE300936C0001E00093A1
:10012A006B0005E000936D0001E000936E0000276C
:10013A00009368000093690000EF00936A000FEFD4
:10014A00009371006624CED000916F00083209F442
:10015A0005C012E0109360003ED201C035D280E0A3
:10016A0090E0009160000BD2003051F496982091F3
:10017A006A0020936600A7D059D011E019BF38D081
:10018A00013011F4969842D1023059F7969AE9CF84
:10019A00EE24FF1841E1001F111F4A9509F4089542
:1001AA00EE1CFF1CE21AF30A20F4E20EF31E8894F6
:1001BA00F2CF0894F0CFFF1829E0001F2A9509F41E
:1001CA000895FF1CF11A18F4F10E8894F6CF0894DA
:1001DA00F4CF5527442760E13695279510F4400F50
:1001EA00511F57954795379527956A95B9F70895F9
:1001FA000F931F9300916800502E14D000916A004B
:10020A00502E10D000B30170502E0CD004E0502EA6
:10021A0009D00027502E1CE005D01A95E9F71F9146
:10022A000F9108955D9BFECF5CB808950F931F93BD
:10023A002F933F934F935F937F93009168001091A0
:10024A0069002AE030E0C5DF022F132F20916A00EF
:10025A003327020F131F40916C0050916B0060917D
:10026A006D004F935F937727461B570BB42EA52E2D
:10027A005F914F917727460F571FD42EC52E0EF048
:10028A0004C0009510950F5F1F4FB016A10624F405
:10029A000D151C054CF40FC040916E00442311F457
:1002AA00909801C0909A07C040916E00442311F4BF
:1002BA00909A01C090987F915F914F913F912F91B1
:1002CA001F910F9108951F9361D052E135E54DEBCF
:1002DA009DD112D010916800812F10916900912F41
:1002EA001F9108950F93FDD003E3802E0FD1AFE63F
:1002FA00B0E02BD10F9108950F931F932F933F9343
:10030A004F93EFD070FF3CC00CEC802EFFD00EEB69
:10031A00802EFCD0A8E6B0E018D1A9E6B0E015D14D
:10032A0010916800209169002F93287F283F11F0CF
:10033A00E89407C02F916894109520951F5F2F4F5E
:10034A0001C02F91269517952695179526951795ED
:10035A0026951795309168000EF43195432F3F701A
:10036A00432F330F330F330F440F340F369536951F
:10037A0036953695109368002093690030936A0089
:10038A004F913F912F911F910F9108950F93A9D0EB
:10039A0070FF06C00CEC802EB9D004E4802EB6D0D3
:1003AA000F9108950F930F920FB800E40EB90BE165
:1003BA000DB9769BFDCFC09AC0980F900F91089502
:1003CA000F93B49B01C014C000917100002309F47B
:1003DA000FC000270093710005D16394162D1430C5
:1003EA0014F4F2D005C06624F6D010E01093600031
:1003FA00B49901C009C000917100002309F004C03A
:10040A000FEF00937100EED00F9108950F931F9391
:10041A002F933F934F93062D002309F002C0639454
:10042A00D3D0CEDF013019F0023011F154C00000F0
:10043A00B29B04C000C0B39B08C00DC0D3D01091BA
:10044A006D00139510936D0006C0CCD010916D000D
:10045A001A9510936D000F931F9300916D001AE087
:10046A00AADE802F9927F09266001F910F9133C060
:10047A000000B29B04C000C0B39B0FC019C0B2D029
:10048A0010916C0020916B0031E0130F3327231F6A
:10049A0010936C0020936B000BC0A4D010916C00D9
:1004AA0020916B001150204010936C0020936B0038
:1004BA000F931F932F933F9300916C0010916B0041
:1004CA002AE030E065DE802F912FE09266003F91AE
:1004DA002F911F910F914F913F912F911F910F9142
:1004EA000895F894B99A33E04EEB8CD0B99830E07D
:1004FA004AE888D005D033E042E384D0789408955E
:10050A00B19B716002C0B1997E7F0895F8940F93F0
:10051A001F93082D18E0069508F448F0B99A30E0C0
:10052A0046E770D0B99830E042E16CD008C0B99A79
:10053A0030E04AE067D0B99830E04EE763D01A95C8
:10054A0051F71F910F9178940895F8940F931F9380
:10055A00002718E00695B99A30E04AE053D0B998D6
:10056A0030E040E14FD0B199006830E04CE64AD023
:10057A001A9581F70C931F910F91789408950F9310
:10058A005F9353E0A3E6B0E080936100909362002A
:10059A0000916100109162002AE030E0F9DDED92ED
:1005AA0000936100109362005A9591F75F910F9141
:1005BA0008950F931F93E0E4F6E01127E00FF11F6F
:1005CA0004901F910F910895C59A53E039EA4DE7B7
:1005DA001DD0C5980895C59A5CE034E34DEF16D056
:1005EA00C59808950F931F932F932AE01FEF0FEFDB
:1005FA000A95F1F71A95D9F72A95C1F72F911F9104
:10060A000F91089541503040E8F708954150304025
:10061A005040E0F708950F931F932F9326E00FEFB2
:10062A001FEF1A95F1F70A95D9F72A95C1F72F9175
:10063A001F910F910895C0F9A4B0999282F8809001
:04064A009CBFC68902
:00000001FF
