:020000020000FC
:0200000068C0D6
:0200160018953B
:10001A0015C00F931F932F933F930FB7B49908C03E
:10002A0020916000203009F003C011E010936000B5
:10003A000FBF3F912F911F910F9118954F935F9387
:10004A000F935FB74091670045300CF403C0442713
:10005A0040936700403081F49398949895980EF0F5
:10006A0002C00BE002C000916500002311F0929AD1
:10007A0001C0929851D1CCD0413041F492989498D1
:10008A009598939A0091640047D1C2D0423059F4AE
:10009A00929893989598949A009163003DD1002D77
:1000AA000F77002EB5D0433039F4929893989498EC
:1000BA00959A00E031D1ACD04395409367005FBF79
:1000CA000F915F914F9118950FED0DBF0EE701BB90
:1000DA0001EC07BB0CE108BB02E000BF05E003BF6F
:1000EA0009E106BF01E009BF00E20BBF0CE100BD58
:1000FA0003E309B900E002B908E10AB906E003B965
:10010A0011241092670000E000936000002700931A
:10011A006A0000936B0080E090E00091600000307C
:10012A0079F4E0D070FD969A70FF969867D0FFD068
:10013A00FED02ED010916A00812F10916B00912F62
:10014A00013011F4CFD070D0023039F71BE0109390
:10015A00630010936400109365001093660000001A
:10016A00DCCFEE24FF1841E1001F111F4A9509F464
:10017A000895EE1CFF1CE21AF30A20F4E20EF31EA5
:10018A008894F2CF0894F0CF41503040E8F70895B0
:10019A000F931F932F933F9355D00CEC802E67D06B
:1001AA000EEB802E64D0AAE6B0E082D0ABE6B0E0D7
:1001BA007FD010916A0020916B002F93287F283FEF
:1001CA0011F0E89409C02F9168941095209531E0B8
:1001DA00130F30E0231F01C02F91269517952695FE
:1001EA001795269517952695179510936A002093CB
:1001FA006B003F912F911F910F9108950F9322D079
:10020A000CEC802E34D004E4802E31D00F91089566
:10021A000F930FB800E40EB90BE10DB9769BFDCF31
:10022A00C09AC0980F9108950F9381D0B29B0196FE
:10023A00B39B0197B49B01C003C000E00093600028
:10024A000F910895F894B99A33E04EEB9DDFB9986F
:10025A0030E04AE899DF05D033E042E395DF78944D
:10026A000895B19B716002C0B1997E7F08950F9382
:10027A001F93082D18E0069508F458F0F894B99AD7
:10028A0030E046E781DFB99830E042E17DDF7894DB
:10029A000AC0F894B99A30E04AE076DFB99830E0BB
:1002AA004EE772DF78941A9531F71F910F910895EE
:1002BA000F931F93002718E0F8940695B99A30E037
:1002CA004AE062DFB99830E040E15EDFB199006848
:1002DA0030E04CE659DF1A9581F70C9378941F9118
:1002EA000F910895F8945F9354E0A3E6B0E08093E9
:1002FA0061009093620000916100109162002AE00F
:10030A0030E02FDFED9200936100109362005A955E
:10031A0091F75F91789408950F931F93E4E7F3E0C0
:10032A001127E00FF11F04901F910F9108950F9369
:10033A001F932F932AE01FEF0FEF0A95F1F71A95F3
:10034A00D9F72A95C1F72F911F910F9108950F930D
:10035A001F930FEF1FEF1A95000000000000D9F756
:10036A000A95C1F71F910F910895C0F9A4B0999207
:06037A0082F880909CBF98
:00000001FF
